{
  "contractName": "MultiSigWallet",
  "abi": [
    {
      "inputs": [
        {
          "name": "_approvers",
          "type": "address[]"
        },
        {
          "name": "_minApprovers",
          "type": "uint256"
        },
        {
          "name": "_beneficiary",
          "type": "address"
        }
      ],
      "payable": false,
      "stateMutability": "nonpayable",
      "type": "constructor",
      "signature": "constructor"
    },
    {
      "constant": false,
      "inputs": [],
      "name": "approve",
      "outputs": [],
      "payable": false,
      "stateMutability": "nonpayable",
      "type": "function",
      "signature": "0x12424e3f"
    },
    {
      "constant": false,
      "inputs": [],
      "name": "reject",
      "outputs": [],
      "payable": false,
      "stateMutability": "nonpayable",
      "type": "function",
      "signature": "0x4dc415de"
    }
  ],
  "bytecode": "0x608060405234801561001057600080fd5b506040516108013803806108018339810180604052610032919081019061025c565b82518211151515610078576040517f08c379a000000000000000000000000000000000000000000000000000000000815260040161006f90610346565b60405180910390fd5b8160008190555080600160006101000a81548173ffffffffffffffffffffffffffffffffffffffff021916908373ffffffffffffffffffffffffffffffffffffffff16021790555033600260006101000a81548173ffffffffffffffffffffffffffffffffffffffff021916908373ffffffffffffffffffffffffffffffffffffffff16021790555060008090505b8351811015610192576000848281518110151561012057fe5b9060200190602002015190506001600460008373ffffffffffffffffffffffffffffffffffffffff1673ffffffffffffffffffffffffffffffffffffffff16815260200190815260200160002060006101000a81548160ff021916908315150217905550508080600101915050610107565b50505050610409565b60006101a782516103db565b905092915050565b60006101bb82516103ed565b905092915050565b600082601f83011215156101d657600080fd5b81516101e96101e482610393565b610366565b9150818183526020840193506020810190508385602084028201111561020e57600080fd5b60005b8381101561023e5781610224888261019b565b845260208401935060208301925050600181019050610211565b5050505092915050565b600061025482516103ff565b905092915050565b60008060006060848603121561027157600080fd5b600084015167ffffffffffffffff81111561028b57600080fd5b610297868287016101c3565b93505060206102a886828701610248565b92505060406102b9868287016101af565b9150509250925092565b6000604482527f5265717569726564206e756d626572206f6620617070726f766572732073686f60208301527f756c64206265206c657373207468616e206e756d626572206f6620617070726f60408301527f76657273000000000000000000000000000000000000000000000000000000006060830152608082019050919050565b6000602082019050818103600083015261035f816102c3565b9050919050565b6000604051905081810181811067ffffffffffffffff8211171561038957600080fd5b8060405250919050565b600067ffffffffffffffff8211156103aa57600080fd5b602082029050602081019050919050565b600073ffffffffffffffffffffffffffffffffffffffff82169050919050565b60006103e6826103bb565b9050919050565b60006103f8826103bb565b9050919050565b6000819050919050565b6103e9806104186000396000f3fe60806040526004361061004c576000357c0100000000000000000000000000000000000000000000000000000000900463ffffffff16806312424e3f146100515780634dc415de14610068575b600080fd5b34801561005d57600080fd5b5061006661007f565b005b34801561007457600080fd5b5061007d61028f565b005b600460003373ffffffffffffffffffffffffffffffffffffffff1673ffffffffffffffffffffffffffffffffffffffff16815260200190815260200160002060009054906101000a900460ff16151561010d576040517f08c379a00000000000000000000000000000000000000000000000000000000081526004016101049061038f565b60405180910390fd5b600360003373ffffffffffffffffffffffffffffffffffffffff1673ffffffffffffffffffffffffffffffffffffffff16815260200190815260200160002060009054906101000a900460ff1615156101cb576005600081548092919060010191905055506001600360003373ffffffffffffffffffffffffffffffffffffffff1673ffffffffffffffffffffffffffffffffffffffff16815260200190815260200160002060006101000a81548160ff0219169083151502179055505b600054600554141561028d576000600160009054906101000a900473ffffffffffffffffffffffffffffffffffffffff1673ffffffffffffffffffffffffffffffffffffffff166108fc3073ffffffffffffffffffffffffffffffffffffffff16319081150290604051600060405180830381858888f19350505050905080151561028b57600260009054906101000a900473ffffffffffffffffffffffffffffffffffffffff1673ffffffffffffffffffffffffffffffffffffffff16ff5b505b565b600460003373ffffffffffffffffffffffffffffffffffffffff1673ffffffffffffffffffffffffffffffffffffffff16815260200190815260200160002060009054906101000a900460ff16151561031d576040517f08c379a00000000000000000000000000000000000000000000000000000000081526004016103149061038f565b60405180910390fd5b600260009054906101000a900473ffffffffffffffffffffffffffffffffffffffff1673ffffffffffffffffffffffffffffffffffffffff16ff5b6000600f82527f4e6f7420616e20417070726f76657200000000000000000000000000000000006020830152604082019050919050565b600060208201905081810360008301526103a881610358565b905091905056fea265627a7a7230582061928ca23b42d60a9f2ee8c6505e62af07ed0869428b5a6c0298fdc9b2db548e6c6578706572696d656e74616cf50037",
  "source": "pragma solidity ^0.5.0;\npragma experimental ABIEncoderV2;\n\ncontract MultiSigWallet {\n\n  uint minApprovers;\n\n  address payable beneficiary;\n  address payable owner;\n\n  mapping (address => bool) approvedBy;\n  mapping (address => bool) isApprover;\n\n  uint approversNum;\n\n  constructor(address[] memory _approvers, uint _minApprovers, address payable _beneficiary ) public {\n    require(_minApprovers <= _approvers.length, \"Required number of approvers should be less than number of approvers\");\n\n    minApprovers = _minApprovers;\n    beneficiary = _beneficiary;\n    owner = msg.sender;\n\n    for(uint i = 0; i < _approvers.length; i++){\n      address approver = _approvers[i];\n      isApprover[approver] = true;\n    }\n  }\n\n\n  /**\n    msg.sender is the intended approver with regards to\n    this method\n   */\n  function approve() public {\n      require(isApprover[msg.sender], \"Not an Approver\");\n      \n      // check if msg.sender has already approved transaction\n      if(!approvedBy[msg.sender]){\n        approversNum++;\n        approvedBy[msg.sender] = true;\n      }\n\n      if(approversNum == minApprovers){\n        bool succeeded = beneficiary.send(address(this).balance);\n        if(!succeeded){\n          selfdestruct(owner);\n        }\n      } \n  }\n\n  function reject() public {\n    require(isApprover[msg.sender], \"Not an Approver\");\n    selfdestruct(owner);\n  }\n}\n",
  "sourcePath": "C:/projects/BLOCKCHAIN STACK/multi-sign-wallet/contracts/MultiSigWallet.sol",
  "compiler": {
    "name": "solc",
    "version": "0.5.0+commit.1d4f565a.Emscripten.clang"
  },
  "schemaVersion": "3.0.6",
  "updatedAt": "2019-04-22T10:49:10.051Z",
  "devdoc": {
    "methods": {}
  },
  "userdoc": {
    "methods": {
      "approve()": {
        "notice": "msg.sender is the intended approver with regards to this method"
      }
    }
  }
}